:020000020000FC
:100000000FEF0DBF08E00EBF3F055B4F656E7E072B
:100010007F67777F3A3F7A72D0E000E00093C100BB
:1000200000EF07B90FE008B90FEF0AB904B90BB92F
:1000300005B90E945B0040E0E0E006B100FF0C94CF
:10004000480006B101FF0C945100A5B3A130A9F7F7
:100050004F3081F1A4E6A6BDA89AE395E43669F78E
:10006000EE27439545B9F0E0E8E0ED0F54915BB918
:10007000D41719F74399349A4FEFDFCFA5B3A130C6
:10008000E9F7A4E6A6BDA89AE395309BF7CFD5CFB4
:10009000DF3021F0D395F2CFD395F0CFDFEF0C9482
:1000A0004C00D03021F0DA95E9CFDA95E7CFDFEFD9
:1000B0000C9455004FEFB5E0B5BDB4E6B6BD08955C
:00000001FF
