:020000020000FC
:100000000FEF0DBF08E00EBF00E00093C10007B97D
:100010000FEF08B904B90AB904E00093610000E0E9
:1000200010E020E05FE73F055B4F656E7E077F676E
:10003000777F3A3F7A72F0E0E6E2E10F64916BB9C4
:1000400006B15017C1F30E944D0006B1501799F345
:100050000E944D0006B15017502F309B0C94390070
:10006000319B0C9443000C941B0020E025B90C94A8
:100070001B001F3011F00C9440001FEF0C94400047
:1000800013950C941B00103011F00C944A0010E1F1
:100090000C944A001A950C941B00F0E0F395F03094
:1000A000E9F7F0E0F395F030E9F7F0E0F395F030A0
:1000B000E9F7F0E0F395F030E9F7089503E005BDC6
:0600C00004E606BD0895F0
:00000001FF
