:020000020000FC
:040000000C9422003A
:040010000C94E70065
:100040000C9413010FEF0DBF08E00EBF3F055B4F8F
:10005000656E7E077F67777F3A3F7A72312831304D
:100060003130313130313031F89400E800936100A3
:1000700004E00093610003E005BD04E606BD01E075
:1000800000936E0002E0009368000FE200936C00A2
:1000900000E00BB905B90093C10000E107B90FEF0B
:1000A00008B904B90AB9789400E010E020E030E023
:1000B00040E050E060E070E082E091E0A0E0B0E07D
:1000C000C0E0D0E0E1E0F0E04598803041F08230DF
:1000D00051F0833031F00C9465000C947E000C9448
:1000E00075000C94DC000C94A20044982C982D9878
:1000F00090E0A0E0B0E0C0E00C9465000C946500D6
:1001000090E0A3950C94A70099E0AA950C94A900FF
:10011000A0E00C94AB00A5E00C94AD00B0E0C3955A
:100120000C94AF00C03051F0B9E0CA950C94B10006
:10013000B430C9F4B0E0C0E00C94B300B3E0C2E066
:100140000C94B30044982D9A2C989A30C9F29F3F92
:10015000D9F2A630E9F2AF3FF1F2BA30F9F2BF3F7F
:1001600009F3C23029F3F0E0ECE4E90F6491289838
:1001700029982A982B986BB9289A0E94E20028980F
:10018000F0E0ECE4EA0F64916BB9299A0E94E20076
:100190002998F0E0ECE4EB0F64916BB92A9A0E9485
:1001A000E2002A98F0E0ECE4EC0F64916BB92B9A32
:1001B0000E94E2000C94650044982D9A2C9A6BB929
:1001C0000C946500F4E6F395F030E9F70895309B60
:1001D0008395823021F0833081F083701895E03070
:1001E00039F0E13001F0319B9395329B9A95189547
:1001F000319BB395329BBA951895309B9395319B63
:10020000AA95329BB395339BCA951895F1E0E0E02F
:100210009083F1E0E1E0A083F1E0E2E0B083F1E07F
:10022000E3E0C083189564E666BD4395D3954A3FE5
:0802300009F01895539518958B
:00000001FF
