:020000020000FC
:100000000FEF0DBF08E00EBF00E00093C10007B97D
:100010000FEF08B904B90AB904E00093610000E0E9
:1000200010E020E030E040E05FE760E006B150170C
:10003000E9F30E94790006B15017C1F30E947900DC
:1000400006B15017502F309B0C943400319B0C9408
:100050004100329B0C945B00339B0C944E00359B0B
:100060000C9468000C9416001F3011F00C943B00A7
:100070001FEF0C943B001395307F310F35B90C9472
:100080001600103011F00C94480010E10C94480058
:100090001A95307F310F35B90C9416002F3011F0BE
:1000A0000C9455002FEF0C9455002395407F420F80
:1000B0004BB90C941600203011F00C94620020E132
:1000C0000C9462002A95407F420F4BB90C941600A5
:1000D00060E0610F620F660F660F660F660F30F00B
:1000E0002C984F70460F4BB90C9416002C9A0C9418
:1000F0007100F0E0F395F030E9F7F0E0F395F030BF
:10010000E9F7F0E0F395F030E9F7F0E0F395F0303F
:04011000E9F708956E
:00000001FF
