:020000020000FC
:100000000FEF0DBF08E00EBF00E007B90FEF0AB910
:1000100008B90EEF1DEF20E041E05FE060E00E94D4
:1000200042000E94420036B130990C941C00319974
:100030000C942F000C940F00251711F00C94230042
:100040002FEF0C942300240F2BB9032F36B1301758
:10005000E1F30E9442000E9442000C940F000E94B3
:100060004200261711F00C94380020E10C9438005F
:10007000241B2BB9132F36B13117E1F30E94420034
:100080000C940F0070E073957030E9F770E0739591
:0E0090007030E9F770E073957030E9F708956D
:00000001FF
