:020000020000FC
:040000000C942A0032
:100040000C9480003F055B4F656E7E077F67777F6E
:100050003A3F7A720FEF0DBF08E00EBFF89400E848
:100060000093070004E00093610003E005BD04E68F
:1000700006BD01E000936E00259A209A01E240E05F
:10008000789406B1501749F00E946F00502F309BB2
:100090000C945300319B0C946100423391F7442738
:1000A0001D9A189AEECF1F3011F00C945A001FEFD2
:1000B0000C945A001395F0E0E4E4E10F64910C9481
:1000C0004100103011F00C94680010E10C946800AD
:1000D0001A95F0E0E4E4E10F64910C944100F0E043
:1000E000F395F030E9F7F0E0F395F030E9F7F0E060
:1000F000F395F030E9F7F0E0F395F030E9F7089583
:0801000004E606BD43951895C5
:00000001FF
