:020000020000FC
:040000000C9422003A
:040010000C949C02AE
:100040000C9413030FEF0DBF08E00EBF3F055B4F8D
:10005000656E7E077F671F1C1F1E1F1E1F1F1E1F32
:100060001E1FF89400E80093610004E00093610013
:1000700003E005BD04E606BD01E000936E0002E06A
:10008000009368000FE200936C0000E00BB905B923
:100090000093C10000E307B90FEF08B904B90AB92A
:1000A000789400E0002E00E0102E00E0202E00E00A
:1000B000302E00E0402E502E602E702E802E902E7E
:1000C000A02EB02EC02ED02EE02EF02E439463949E
:1000D00000E010E020E040E051E060E0D0E0F0E03F
:1000E0005770503071F0513071F0523071F0533020
:1000F00071F0543071F0553071F0563071F00C944D
:1001000070000C944F010C9458010C9463010C94F2
:100110009C010C94FF010C9450020C948B0228312A
:10012000F9F41127222703940AE00016D1F006E023
:100130001016D9F004E02016E1F00AE0201611F1C3
:100140000AE0401619F10D2DF0E0E6E5E00F04910C
:10015000C0160CF50AE0601631F10CE0D01639F14A
:10016000089500E0002E1394E2CF00E0102E2394B7
:10017000E1CF02E0301609F700E0202E302E439444
:10018000C394DECF00E0202E3394DACF00E0402E7F
:100190005394C394D8CF01E0402E00E0C02E502EDF
:1001A0006394D394D7CF00E0602E7394D6CF01E050
:1001B000402E602E00E0702E802ED02ED1CFF0E0A9
:1001C000ECE4E00F04910BB90895002D28982998CC
:1001D0002A982B980E94DF00289A0E94970228985C
:1001E000012D0E94DF00299A0E9497022998022D72
:1001F0000E94DF002A9A0E9497022A98032D0E94EB
:10020000DF002B9A0E9497022B980895062D2898BC
:1002100029982A982B980E94DF00289A0E9497021A
:100220002898072D0E94DF00299A0E94970229989A
:10023000042D0E94DF002A9A0E9497022A98052D19
:100240000E94DF002B9A0E9497022B980895D233C8
:1002500049F4DD27349B0C942F01349902C0449A51
:1002600001C044980895081419F045980C944E0163
:10027000191419F045980C944E012A1419F0459858
:100280000C944E013B1419F045980C944E0101E07A
:10029000601719F045980C944E01459A08952898D6
:1002A00029982A982B982C982D9844980C94700093
:1002B0000E948F002C9A0E9427010E9433010E9405
:1002C000E5000C9470002C982D9A0E9427010E9442
:1002D00033010E948F000E9406010C94700000E020
:1002E000002E13940C94A30109E0002E1A940C9490
:1002F000A60100E0102E0C94A90105E0102E0C942C
:10030000AC0100E0202E33940C94AF0100E03016D5
:1003100069F009E0202E3A940C94B20104E0201612
:1003200021F500E0202E302E0C94B50103E0202EA4
:1003300002E0302E0C94B5012C9A2D9844984598E3
:100340000AE0001661F20FEF001671F206E01016D7
:1003500081F20FEF101689F20AE0201691F20FEFEA
:100360002016A1F202E03016C9F20E94E5000C94BA
:1003700070000EE1C02E03E0502E01E0402E0C94E0
:1003800009020DE1C02E03E0502E00E0402E0C9437
:1003900009020BE1C02E02E0502E08E0402E0C9422
:1003A000090200E0402E539431C00D2DF0E0E6E547
:1003B000E00F04910F31E9F20E3119F30C3149F3DA
:1003C00028C001E0402E00E0C02E502E29C009E0D8
:1003D000402E5A9428C000E0D02E702E01E0602EEE
:1003E00025C00BE0D02E01E0702E02E0602E21C06F
:1003F00000E0602E739420C009E0602E7A942D9A5C
:100400002C98449845980AE0401659F20FEFC01610
:1004100061F20D2DF0E0E6E5E00F0491C0168CF6D8
:100420000FEF4016A1F20CE0D016A9F20FEFD01694
:10043000C1F20AE06016E1F20FEF6016E9F20E94E5
:1004400006010C94700000E0802E93940C945702E7
:1004500009E0802E9A940C945A0200E0902E0C949D
:100460005D0205E0902E0C94600200E0A02EB39493
:100470000C94630200E0B01669F009E0A02EBA9473
:100480000C94660204E0B01721F500E0A02EB02E17
:100490000C94690203E0A02E02E0B02E0C946902D5
:1004A0002C9A2D9A449845980AE0801661F20FEF35
:1004B000801671F206E0901681F20FEF901689F225
:1004C0000AE0A01691F20FEFA016A1F202E0B0161A
:1004D000C9F2082D289829982A982B980E94DF00A5
:1004E000289A0E9497022898092D0E94DF00299AD5
:1004F0000E94970229980A2D0E94DF002A9A0E94E2
:1005000097022A980B2D0E94DF002B9A0E949702D7
:100510002B980C9470002C9A2D9A44984598613031
:1005200019F044980C947000449A0C947000F0E018
:10053000F395F030E9F708957233A1F45030B9F033
:10054000309B53955130F1F05230F1F05330F1F0CF
:10055000543049F0553049F006E050130C94B20283
:100560000C94070318950C94D3020C94F902772786
:10057000309B01C01895539544E646BD11272227AC
:10058000DD27189577271895772718957727339BB8
:1005900005C0319B0394329B0A941895319B239498
:1005A000329B2A9418957727339B0CC000C0319B4F
:1005B00003C0329B04C018954394C39418954A9481
:1005C000CA941895319B03C0329B0AC01895639456
:1005D000D39400E0502E01E0402E00E0C02E18958C
:1005E0006A94DA9400E0502E01E0402E00E0C02E24
:1005F00018957727339B06C000C0319B8394329BAC
:100600008A941895319BA394329BAA9418957727C6
:10061000319B06C0329B01C01895449A61E0189541
:10062000449860E0189544E646BD723309F073952E
:10063000513011F41395D395523011F41395D3958D
:0A0640001A3F09F01895239518954C
:00000001FF
