:020000020000FC
:040000000C9422003A
:040010000C948102C9
:100040000C94F8020FEF0DBF08E00EBF3F055B4FA9
:10005000656E7E077F671F1C1F1E1F1E1F1F1E1F32
:100060001E1FF89403E005BD04E606BD01E0009301
:100070006E0002E0009368000FE200936C0000E065
:100080000BB905B90093C10000E307B90FEF08B938
:1000900004B90AB9789400E0002E00E0102E00E0C8
:1000A000202E00E0302E00E0402E502E602E702ECC
:1000B000802E902EA02EB02EC02ED02EE02EF02E10
:1000C0004394639400E010E020E040E051E060E001
:1000D000D0E0F0E05770503071F0513071F0523094
:1000E00071F0533071F0543071F0553071F056307A
:1000F00071F00C946A000C9421010C942A010C9468
:1001000057010C948A010C94F0010C943D020C945C
:1001100074022831F9F41127222703940AE000160B
:10012000D1F006E01016D9F004E02016E1F00AE064
:10013000201611F10AE0401619F10D2DF0E0E6E568
:10014000E00F0491C0160CF50AE0601631F10CE0E6
:10015000D01639F1089500E0002E1394E2CF00E0AC
:10016000102E2394E1CF02E0301609F700E0202E94
:10017000302E4394C394DECF00E0202E3394DACFA8
:1001800000E0402E5394C394D8CF01E0402E00E00D
:10019000C02E502E6394D394D7CF00E0602E73947A
:1001A000D6CF01E0402E602E00E0702E802ED02EA3
:1001B000D1CFF0E0ECE4E00F04910BB90895002DED
:1001C000289829982A982B980E94D900289A0E944A
:1001D0007C022898012D0E94D900299A0E947C0255
:1001E0002998022D0E94D9002A9A0E947C022A98FE
:1001F000032D0E94D9002B9A0E947C022B9808950F
:10020000062D289829982A982B980E94D900289A78
:100210000E947C022898072D0E94D900299A0E94EA
:100220007C022998042D0E94D9002A9A0E947C02FF
:100230002A98052D0E94D9002B9A0E947C022B98A7
:100240000895289829982A982B982C982D984498A6
:100250000C946A000E9489002C9AD23321F5DD2784
:10026000349B0C943501349902C0449A01C04498DF
:10027000081419F045980C942A01191419F045989E
:100280000C942A012A1419F045980C942A013B1465
:1002900019F045980C94530101E0601719F0459846
:1002A0000C945301459A0E94DF000C946A000E944E
:1002B00089000E9400010C946A0000E0002E139453
:1002C0000C94940109E0002E1A940C94970100E01C
:1002D000102E0C949A0105E0102E0C949D0100E064
:1002E000202E33940C94A00100E0301669F009E050
:1002F000202E3A940C94A30104E0201639F500E076
:10030000202E302E0C94A60103E0202E02E0302E89
:100310000C94A601289829982A982B982C982D9807
:1003200044980AE0001649F20FEF001659F206E071
:10033000101669F20FEF101671F20AE0201679F22A
:100340000FEF201689F202E03016B1F20E94DF00B2
:100350000C946A000EE1C02E03E0502E01E0402E06
:100360000C94F6010DE1C02E03E0502E00E0402E6B
:100370000C94F6010BE1C02E02E0502E08E0402E56
:100380000C94F60100E0402E53942DC00D2DF0E0AA
:10039000E6E5E00F04910F31E9F20E3119F30C316B
:1003A00049F324C001E0402E00E0C02E502E25C0AD
:1003B00009E0402E5A9424C000E0D02E702E01E0B7
:1003C000602E21C00BE0D02E01E0702E02E0602EE6
:1003D0001DC000E0602E73941CC009E0602E7A946A
:1003E0000AE0401679F20FEFC01681F20D2DF0E011
:1003F000E6E5E00F0491C016ACF60FEF4016C1F22F
:100400000CE0D016C9F20FEFD016E1F20AE0601648
:1004100001F30FEF601609F30E9400010C946A00CB
:1004200000E0802E93940C94400209E0802E9A9470
:100430000C94430200E0902E0C94460205E0902EAE
:100440000C94490200E0A02EB3940C944C0200E0FE
:10045000B01669F009E0A02EBA940C944F0204E0A3
:10046000A01601F500E0A02EB02E0C94520203E07D
:10047000A02E02E0B02E0C9452020AE0801681F207
:100480000FEF801691F206E09016A1F20FEF901692
:10049000A9F20AE0A016B1F20FEFA016C1F202E035
:1004A000B016E9F2082D289829982A982B980E94CE
:1004B000D900289A0E947C022898092D0E94D90010
:1004C000299A0E947C0229980A2D0E94D9002A9A12
:1004D0000E947C022A980B2D0E94D9002B9A0E9420
:1004E0007C022B980C946A00613019F044980C94AB
:1004F0006A00449A0C946A00F0E0F395F030E9F752
:1005000008957233A1F45030B9F0309B53955130B7
:10051000F1F05230F1F05330F1F0543049F05530F1
:1005200049F006E050130C9497020C94EC021895D5
:100530000C94B8020C94DE027727309B01C018950A
:10054000539544E646BD11272227DD2718957727C6
:100550001895772718957727339B05C0319B03940F
:10056000329B0A941895319B2394329B2A941895B8
:100570007727339B0CC000C0319B03C0329B04C063
:1005800018954394C39418954A94CA941895319B2E
:1005900003C0329B0AC018956394D39400E0502E98
:1005A00001E0402E00E0C02E18956A94DA9400E035
:1005B000502E01E0402E00E0C02E18957727339B87
:1005C00006C000C0319B8394329B8A941895319B5E
:1005D000A394329BAA9418957727319B06C0329B2F
:1005E00001C01895449A61E01895449860E0189508
:1005F00044E646BD723309F07395513011F41395FA
:10060000D395523011F41395D3951A3F09F01895EC
:040610002395189581
:00000001FF
