:020000020000FC
:100000000FEF0DBF08E00EBF00E004B905B90FEF18
:1000100007B908B901E012E020E041E05FE060E0EC
:1000200028B90E94460033B1301721F03117C1F0D2
:100030000C9410000E94460033B1301789F7251741
:1000400011F00C9426002FEF0C942600240F28B9F1
:10005000032F33B13017E1F30E9446000C941000D7
:100060000E94460033B13117D9F6261711F00C94CF
:100070003C0020E10C943C00241B28B9132F33B121
:100080003117E1F30E9446000C94100070E0739564
:100090007030E9F770E073957030E9F770E07395B0
:0600A0007030E9F708953D
:00000001FF
