:020000020000FC
:040000000C9422003A
:040010000C944B02FF
:100040000C94E8020FEF0DBF08E00EBF3F055B4FB9
:10005000656E7E077F67777F3A3F7A72201D201F8B
:10006000201F20201F201F20F89403E005BD04E678
:1000700006BD01E000936E0002E0009368000FE20D
:1000800000936C0000E00BB905B90093C10000E3D8
:1000900007B90FEF08B904B90AB9789400E0002E47
:1000A000102E202E302E402E502E602E702E802EA0
:1000B000902EA02EB02EC02ED02EE02E00E010E00C
:1000C00020E030E040E050E060E070E080E090E070
:1000D000A0E0B0E0C0E0D0E0F0E0002E112E222E33
:1000E000332E8770803059F1813059F1823059F1C7
:1000F000833059F1843059F1853059F1863059F106
:100100000C946D00583159F44427552703950A3053
:1001100039F0163041F0243049F02A3069F0089562
:1001200000E01395F6CF10E02395F5CF3230A9F714
:1001300020E030E04394F3CF20E03395F0CF0C94EF
:10014000AD000C94B8000C9410010C9464010C9454
:10015000A5010C94F3010C942D02289829982A9853
:100160002B982C982D98449864E666BD0C946D00ED
:100170000E9482002C9A2D98D23341F5DD27349BC2
:100180000C94C400349902C0449A01C04498782D5C
:10019000071719F045980C94B800792D171719F026
:1001A00045980C94B8007A2D271719F045980C94AF
:1001B000B8007B2D371719F045980C94E60071E0D4
:1001C000C71619F045980C94E600459AF0E0ECE467
:1001D000E00F7491289829982A982B987BB9289A2F
:1001E0000E9431022898F0E0ECE4E10F74917BB9B1
:1001F000299A0E9431022998F0E0ECE4E20F749110
:100200007BB92A9A0E9431022A98F0E0ECE4E30FCD
:1002100074917BB92B9A0E9431022B980C946D003B
:100220000E948200289A299A2A9A2B9AF0E0ECE4FC
:10023000E90F7491289829982A982B987BB9289AC5
:100240000E9431022898F0E0ECE4EA0F74917BB947
:10025000299A0E9431022998F0E0ECE4EB0F7491A6
:100260007BB92A9A0E9431022A98F0E0ECE4EC0F64
:1002700074917BB92B9A0E9431022B980C946D00DB
:100280000C946D0090E0A3950C946F0199E0AA95F1
:100290000C947101A0E00C947301A5E00C9475011D
:1002A000B0E0C3950C947701C03051F0B9E0CA9525
:1002B0000C947901B430F9F4B0E0C0E00C947B0107
:1002C000B3E0C2E00C947B01289829982A982B98D7
:1002D0002C982D98449864E666BD9A3099F29F3F19
:1002E000A9F2A630B9F2AF3FC1F2BA30C9F2BF3FAE
:1002F000D9F2C230F9F2F0E0ECE4E90F74912898F9
:1003000029982A982B987BB9289A0E94310228981C
:10031000F0E0ECE4EA0F74917BB9299A0E94310273
:100320002998F0E0ECE4EB0F74917BB92A9A0E94D3
:1003300031022A98F0E0ECE4EC0F74917BB92B9A2F
:100340000E9431022B980C946D0064E666BDF0E0CB
:10035000ECE4E90F7491289829982A982B987BB996
:10036000289A0E9431022898F0E0ECE4EA0F749198
:100370007BB9299A0E9431022998F0E0ECE4EB0F56
:1003800074917BB92A9A0E9431022A98F0E0ECE439
:10039000EC0F74917BB92B9A0E9431022B980C942C
:1003A0006D0090E0A3950C94F70199E0AA950C9448
:1003B000F901A0E00C94FB01A5E00C94FD01B0E074
:1003C000C3950C94FF01C03051F0B9E0CA950C946C
:1003D0000102B430C1F4B0E0C0E00C940302B3E019
:1003E000C2E00C94030264E666BD9A30D1F29F3FEE
:1003F000E1F2A630F1F2AF3FF9F2BA3001F3BF3FBC
:1004000011F3C23031F3F0E0ECE4E90F7491289875
:1004100029982A982B987BB9289A0E94310228980B
:10042000F0E0ECE4EA0F74917BB9299A0E94310262
:100430002998F0E0ECE4EB0F74917BB92A9A0E94C2
:1004400031022A98F0E0ECE4EC0F74917BB92B9A1E
:100450000E9431022B980C946D0064E666BD0C94EA
:100460006D00F0E0F395F030E9F70895F0E0F395D2
:10047000F030E9F7F0E0F395F030E9F7F0E0F395CC
:10048000F030E9F7F0E0F395F030E9F7F0E0F395BC
:10049000F030E9F7089566B1E617C1F00E94360220
:1004A00076B1E61799F00E94360276B1E61771F040
:1004B000E62F309B0C949E02823049F0833041F04D
:1004C000843099F0853011F1863069F118951895CE
:1004D000339B06C000C0319B9395329B9A9518952B
:1004E000319BB395329BBA951895339B08C000C0D9
:1004F000319B9395E394329B9A95E3941895319BA5
:10050000B395D394329BBA95DA941895339B06C071
:1005100000C0319B9395329B9A951895319BB3956A
:10052000329BBA951895319B06C0329B01C0189535
:10053000449A91E01895449890E01895803079F0AD
:10054000813099F08230B9F08330F9F0843039F19C
:10055000853079F186300C94E50283951895839562
:10056000002D112D222D332D18958395942DA52D19
:10057000B62DC72D18958395492E5A2E6B2E7C2E9D
:10058000902FA12FB22FC32F18958395092F1A2FC3
:100590002B2F3C2F942DA52DB62DC72D1895839567
:1005A000492E5A2E6B2E7C2E982DA92DBA2DCB2D8F
:1005B00018958395892E9A2EAB2EBC2E9C2D9130AA
:1005C00011F044981895449A18958395C92E18955A
:1005D00064E666BD4395D3954A3F09F01895539557
:0205E00018956C
:00000001FF
