:020000020000FC
:040000000C9422003A
:040010000C946802E2
:100040000C9407030FEF0DBF08E00EBF3F055B4F99
:10005000656E7E077F67777F3A3F7A72201D201F8B
:10006000201F20201F201F20F89403E005BD04E678
:1000700006BD01E000936E0002E0009368000FE20D
:1000800000936C0000E00BB905B90093C10000E3D8
:1000900007B90FEF08B904B90AB9789400E0002E47
:1000A000102E202E302E402E502E602E702E802EA0
:1000B000902EA02EB02EC02ED02EE02EE39443948E
:1000C00000E010E020E030E040E050E060E070E070
:1000D00080E091E0A0E0B1E0C0E0D0E0F0E0002EF0
:1000E000112E222E332E8770803071F0813071F006
:1000F000823071F0833071F0843071F0853071F0AE
:10010000863071F00C946F000C94C8000C94D300EE
:100110000C942F010C9481010C94C2010C941002D8
:100120000C944A025831A9F44427552703950A3004
:10013000A9F01630B1F02430B9F02A30E1F09A304D
:10014000E9F07D2DF0E0ECE5E70F64917E2D761768
:10015000C9F0492E5A2E6B2E7C2E089500E013957F
:10016000E8CF10E02395E7CF323039F720E030E0D8
:100170009395E394E4CF20E03395E1CF90E0A3950D
:10018000E394DFCF90E0A0E0E92EB395D394E1CFE4
:10019000289829982A982B982C982D98449864E6AA
:1001A00066BD0C946F00942DA52DB62DC72D0E9411
:1001B00092002C9A2D98D23341F5DD27349B0C9474
:1001C000E300349902C0449A01C04498782D07177F
:1001D00019F045980C94D300792D171719F045980C
:1001E0000C94D3007A2D271719F045980C94D3005E
:1001F0007B2D371719F045980C94050171E0C7164F
:1002000019F045980C940501459AF0E0ECE4E00FF4
:100210007491289829982A982B987BB9289A0E943B
:100220004E022898F0E0ECE4E10F74917BB9299A32
:100230000E944E022998F0E0ECE4E20F74917BB941
:100240002A9A0E944E022A98F0E0ECE4E30F74919F
:100250007BB92B9A0E944E022B980C946F000E943F
:100260009200289A299A2A9A2B9AF0E0ECE4E90F56
:100270007491289829982A982B987BB9289A0E94DB
:100280004E022898F0E0ECE4EA0F74917BB9299AC9
:100290000E944E022998F0E0ECE4EB0F74917BB9D8
:1002A0002A9A0E944E022A98F0E0ECE4EC0F749136
:1002B0007BB92B9A0E944E022B980C946F0090E011
:1002C000A3950C948C0199E0AA950C948E01A0E062
:1002D0000C949001A5E00C949201B0E0C3950C94AD
:1002E0009401C03051F0B9E0CA950C949601B43035
:1002F000F9F4B0E0C0E00C949801B3E0C2E00C94D3
:100300009801289829982A982B982C982D984498E9
:1003100064E666BD9A3099F29F3FA9F2A630B9F221
:10032000AF3FC1F2BA30C9F2BF3FD9F2C230F9F2E1
:10033000F0E0ECE4E90F7491289829982A982B981A
:100340007BB9289A0E944E022898F0E0ECE4EA0F6C
:1003500074917BB9299A0E944E022998F0E0ECE44E
:10036000EB0F74917BB92A9A0E944E022A98F0E012
:10037000ECE4EC0F74917BB92B9A0E944E022B98FF
:100380000C946F0064E666BDF0E0ECE4E90F749154
:10039000289829982A982B987BB9289A0E944E026F
:1003A0002898F0E0ECE4EA0F74917BB9299A0E9456
:1003B0004E022998F0E0ECE4EB0F74917BB92A9A95
:1003C0000E944E022A98F0E0ECE4EC0F74917BB9A5
:1003D0002B9A0E944E022B980C946F0090E0A395EC
:1003E0000C94140299E0AA950C941602A0E00C94C7
:1003F0001802A5E00C941A02B0E0C3950C941C02FC
:10040000C03051F0B9E0CA950C941E02B430C1F46A
:10041000B0E0C0E00C942002B3E0C2E00C942002F3
:1004200064E666BD9A30D1F29F3FE1F2A630F1F268
:10043000AF3FF9F2BA3001F3BF3F11F3C23031F3ED
:10044000F0E0ECE4E90F7491289829982A982B9809
:100450007BB9289A0E944E022898F0E0ECE4EA0F5B
:1004600074917BB9299A0E944E022998F0E0ECE43D
:10047000EB0F74917BB92A9A0E944E022A98F0E001
:10048000ECE4EC0F74917BB92B9A0E944E022B98EE
:100490000C946F0064E666BD0C946F00F0E0F39579
:1004A000F030E9F70895F0E0F395F030E9F7F0E087
:1004B000F395F030E9F7F0E0F395F030E9F7F0E08C
:1004C000F395F030E9F7F0E0F395F030E9F70895AF
:1004D00066B1E617C1F00E94530276B1E61799F0B3
:1004E0000E94530276B1E61771F0E62F309B0C9410
:1004F000BB02823049F0833041F0843099F085307E
:1005000011F1863069F118951895339B06C000C02B
:10051000319B9395329B9A951895319BB395329B5D
:10052000BA951895339B08C000C0319B9395E3940E
:10053000329B9A95E3941895319BB395D394329B53
:10054000BA95DA941895339B06C000C0319B9395F9
:10055000329B9A951895319BB395329BBA95189515
:10056000319B06C0329B01C01895449A61E01895F2
:10057000449860E01895803079F08130A9F082309D
:10058000C9F0833009F1843049F1853089F1863032
:100590000C94040383951895839564E666BD002D3D
:1005A000112D222D332D18958395942DA52DB62D23
:1005B000C72D18958395492E5A2E6B2E7C2E902F81
:1005C000A12FB22FC32F18958395092F1A2F2B2FE8
:1005D0003C2F942DA52DB62DC72D18958395492E0A
:1005E0005A2E6B2E7C2E982DA92DBA2DCB2D189519
:1005F0008395892E9A2EAB2EBC2E9C2D913011F016
:1006000044981895449A18958395C92E189564E6D0
:1006100066BD4395D3954A3F09F0189553951895B3
:00000001FF
