:020000020000FC
:040000000C9422003A
:040010000C94F60155
:100040000C948E020FEF0DBF08E00EBF3F055B4F13
:10005000656E7E077F67777F3A3F7A72201D201F8B
:10006000201F20201F201F20F89403E005BD04E678
:1000700006BD01E000936E0002E0009368000FE20D
:1000800000936C0000E00BB905B90093C10000E3D8
:1000900007B90FEF08B904B90AB9789400E0002E47
:1000A000102E202E302E402E502E602E702E802EA0
:1000B000902EA02EB02EC02ED02EE02E00E010E00C
:1000C00020E030E040E050E060E070E080E090E070
:1000D000A0E0B0E0C0E0D0E0F0E0583159F44427AF
:1000E000552703950A30D9F01630E1F02430E9F0B5
:1000F0002A3009F1002E112E222E332E87708030E7
:10010000E9F08130E9F08230E9F08330E9F08430C1
:10011000E9F08530E9F08630E9F00C946D0000E0FC
:100120001395E2CF10E02395E1CF323009F720E0BC
:1001300030E04394DFCF20E03395DCCF0C94AC006B
:100140000C94B7000C940D010C9437010C947801B9
:100150000C949E010C94D801289829982A982B98E1
:100160002C982D98449864E666BD0C946D002C9AEA
:100170002D98D23341F5DD27349B0C94C10034997E
:1001800002C0449A01C04498982DA92DBA2DCB2DB8
:10019000091719F045980C94B7001A1719F04598EB
:1001A0000C94B7002B1719F045980C94B7003C1726
:1001B00019F045980C94E30071E0C71619F04598C2
:1001C0000C94E300459AF0E0ECE4E00F7491289879
:1001D00029982A982B987BB9289A0E94DC012898A4
:1001E000F0E0ECE4E10F74917BB9299A0E94DC0104
:1001F0002998F0E0ECE4E20F74917BB92A9A0E940E
:10020000DC012A98F0E0ECE4E30F74917BB92B9ABF
:100210000E94DC012B980C946D00289A299A2A9A46
:100220002B9A7FEF7BB90C946D0090E0A3950C9412
:10023000420199E0AA950C944401A0E00C94460177
:10024000A5E00C944801B0E0C3950C944A01C0307D
:1002500051F0B9E0CA950C944C01B430F9F4B0E017
:10026000C0E00C944E01B3E0C2E00C944E0128981B
:1002700029982A982B982C982D98449864E666BD66
:100280009A3099F29F3FA9F2A630B9F2AF3FC1F27E
:10029000BA30C9F2BF3FD9F2C230F9F2F0E0ECE473
:1002A000E90F7491289829982A982B987BB9289A55
:1002B0000E94DC012898F0E0ECE4EA0F74917BB92D
:1002C000299A0E94DC012998F0E0ECE4EB0F74918C
:1002D0007BB92A9A0E94DC012A98F0E0ECE4EC0F4A
:1002E00074917BB92B9A0E94DC012B980C946D00C1
:1002F00064E666BD0C946D0090E0A3950C94A20199
:1003000099E0AA950C94A401A0E00C94A601A5E0A4
:100310000C94A801B0E0C3950C94AA01C03051F030
:10032000B9E0CA950C94AC01B430C1F4B0E0C0E0BF
:100330000C94AE01B3E0C2E00C94AE0164E666BD7D
:100340009A30D1F29F3FE1F2A630F1F2AF3FF9F2DD
:10035000BA3001F3BF3F11F3C23031F3F0E0ECE407
:10036000E90F7491289829982A982B987BB9289A94
:100370000E94DC012898F0E0ECE4EA0F74917BB96C
:10038000299A0E94DC012998F0E0ECE4EB0F7491CB
:100390007BB92A9A0E94DC012A98F0E0ECE4EC0F89
:1003A00074917BB92B9A0E94DC012B980C946D0000
:1003B00064E666BD0C946D00F0E0F395F030E9F76B
:1003C0000895F0E0F395F030E9F7F0E0F395F030C0
:1003D000E9F7F0E0F395F030E9F7F0E0F395F0306D
:1003E000E9F7F0E0F395F030E9F7089566B1E61724
:1003F000C1F00E94E10176B1E61799F00E94E10197
:1004000076B1E61771F0E62F309B0C9449028230EA
:1004100049F0833041F0843099F0853011F1863015
:1004200069F118951895339B01C005C0319B9395D0
:10043000329B9A951895319BB395329BBA95189536
:10044000339B08C000C0319B9395E394329B9A95EF
:10045000E3941895319BB395D394329BBA95DA9473
:100460001895339B01C005C0319B9395329B9A959B
:100470001895319BB395329BBA951895319B06C060
:10048000329B01C01895449A91E01895449890E0E9
:100490001895803079F0813099F08230B9F083304E
:1004A000F9F0843039F1853079F186300C948B0283
:1004B000839518958395002D112D222D332D189598
:1004C0008395942DA52DB62DC72D18958395492E6E
:1004D0005A2E6B2E7C2E902FA12FB22FC32F189542
:1004E0008395092F1A2F2B2F3C2F942DA52DB62D38
:1004F000C72D18958395492E5A2E6B2E7C2E982D3C
:10050000A92DBA2DCB2D18958395892E9A2EAB2E19
:10051000BC2E9C2D18958395C92E189564E666BD52
:0E0520004395D3954A3F09F0189553951895C9
:00000001FF
