:020000020000FC
:040000000C9422003A
:040010000C94E60165
:100040000C9441020FEF0DBF08E00EBF3F055B4F60
:10005000656E7E077F67777F3A3F7A723229323149
:100060003231323231323132F89403E005BD04E6E8
:1000700006BD01E000936E0002E0009368000FE20D
:1000800000936C0000E00BB905B90093C10000E3D8
:1000900007B90FEF08B904B90AB9789400E010E085
:1000A00020E030E040E050E060E070E081E090E08F
:1000B000A0E0B0E0C0E0D0E0F0E04598F1E0E0E0A2
:1000C0009083F1E0E1E0A083F1E0E2E0B083F1E0D1
:1000D000E3E0C083F2E0E0E09083F2E0E1E0A083BF
:1000E000F2E0E2E0B083F2E0E3E0C083583159F49B
:1000F0004427552703950A30C1F01630C9F0243043
:10010000D1F02A30E9F0833041F0813041F0823083
:1001100051F0803031F00C9476000C94A3000C94D4
:1001200070010C9436010C94DA0000E01395E5CFD1
:1001300010E02395E4CF323021F720E030E0E3CF28
:1001400020E03395E0CF44982C982D982898299852
:100150002A982B98F2E0E0E09081F2E0E1E0A081C3
:10016000F2E0E2E0B081F2E0E3E0C0810C947600DE
:1001700090E0A3950C94DF0099E0AA950C94E1001F
:10018000A0E00C94E300A5E00C94E500B0E0C3957A
:100190000C94E700C03051F0B9E0CA950C94E90026
:1001A000B430C9F4B0E0C0E00C94EB00B3E0C2E0BE
:1001B0000C94EB0044982D9A2C989A30C9F29F3FEA
:1001C000D9F2A630E9F2AF3FF1F2BA30F9F2BF3F0F
:1001D00009F3C23029F3F0E0ECE4E90F74912898B8
:1001E00029982A982B987BB9289A0E94CC012898A4
:1001F000F0E0ECE4EA0F74917BB9299A0E94CC01FB
:100200002998F0E0ECE4EB0F74917BB92A9A0E94F4
:10021000CC012A98F0E0ECE4EC0F74917BB92B9AB6
:100220000E94CC010C94760090E0A3950C943B01C5
:1002300099E0AA950C943D01A0E00C943F01A5E043
:100240000C944101B0E0C3950C944301C03051F0CF
:10025000B9E0CA950C944501B430C9F4B0E0C0E0EF
:100260000C944701B3E0C2E00C9447012C9A2C9AFD
:1002700044989A30C9F29F3FD9F2A230E9F2AF3FD9
:10028000F1F2BA30F9F2BF3F09F3C23029F3F0E0DE
:10029000ECE4E90F7491289829982A982B987BB957
:1002A000289A0E94CC012898F0E0ECE4EA0F7491BF
:1002B0007BB9299A0E94CC012998F0E0ECE4EB0F7D
:1002C00074917BB92A9A0E94CC012A98F0E0ECE460
:1002D000EC0F74917BB92B9A0E94CC010C947600A0
:1002E000F1E0E0E09081F1E0E1E0A081F1E0E2E026
:1002F000B081F1E0E3E0C0812C9A2D98D23369F40B
:10030000DD27349B0C94870134990C948A01449A1C
:100310000C948D0144980C948D01091719F045989F
:100320000C94A2011A1719F045980C94A2012B17EE
:1003300019F045980C94A2013C1719F02F980C94D1
:10034000A201459AF0E0ECE4E00F64912898299826
:100350002A982B986BB9289A0E94CC012898F0E033
:10036000ECE4E10F64916BB9299A0E94CC012998C1
:10037000F0E0ECE4E20F64916BB92A9A0E94CC01A0
:100380002A98F0E0ECE4E30F64916BB92B9A0E9499
:10039000CC012B980C947600F0E0F395F030E9F75F
:1003A0000895F0E0F395F030E9F7F0E0F395F030E0
:1003B000E9F7F0E0F395F030E9F7F0E0F395F0308D
:1003C000E9F7F0E0F395F030E9F7089576B1E71733
:1003D00099F00E94D10176B1E71771F00E94D10126
:1003E00076B1E71749F0E72F8370823059F08030FB
:1003F000B9F1309B839583701895823011F1833069
:1004000089F01895309B0C942102339B01C005C0E4
:10041000319B9395329B9A951895319BB395329B5E
:10042000BA95189583958370F2E0E0E09083F2E04E
:10043000E1E0A083F2E0E2E0B083F2E0E3E0C08339
:10044000189583958370F1E0E0E09083F1E0E1E0BE
:10045000A083F1E0E2E0B083F1E0E3E0C08318952F
:10046000309B0C941202339B06C000C0319B9395C5
:10047000329B9A951895319BB395329BBA951895F6
:10048000189564E666BD4395D3954A3F09F01895E3
:0404900053951895D3
:00000001FF
