:020000020000FC
:040000000C942A0032
:040010000C949D00AF
:100040000C94A8003F055B4F656E7E077F67777F46
:100050003A3F7A720FEF0DBF08E00EBFF89400E848
:100060000093610004E00093610003E005BD04E635
:1000700006BD01E000936E0002E00093680003E01B
:1000800000936C0000E00BB905B90093C1000CE3CC
:1000900007B90FEF08B904B90AB9789400E010E085
:1000A00030E050E0A0E020E060E0F0E0E4E4E10FC8
:1000B000249142984398449845982BB9429A0E94BB
:1000C00098004298F0E0E4E4E30F24912BB9439ABE
:1000D0000E9498004398F0E0E4E4E50F24912BB9E6
:1000E000449A0E9498004498F0E0E4E4EA0F2491D6
:1000F0002BB9459A0E949800443651F44427139531
:100100001A3059F0363061F05A3069F0A63071F08B
:1001100073B1707F700F75B9C8CF10E03395F2CF0F
:1001200030E05395F1CF50E0A395F0CFA0E0F4CFAD
:10013000F0E0F395F030E9F7089586B18370891700
:1001400031F0309B0395319B0A950F70982F1895CD
:0801500064E666BD43951895B5
:00000001FF
