:020000020000FC
:040000000C942A0032
:040010000C947D00CF
:100040000C9488003F055B4F656E7E077F67777F66
:100050003A3F7A720FEF0DBF08E00EBFF89400E848
:100060000093610004E00093610003E005BD04E635
:1000700006BD01E000936E0002E00093680003E01B
:1000800000936C0000E00BB905B90093C1000CE0CF
:1000900007B90FEF08B904B90AB9789400E01FEF67
:1000A00030E020E060E0429843982BB9439A0E94E8
:1000B000780043985BB9429A0E947800443671F404
:1000C000442713951A3079F0363081F0F0E0E4E4FB
:1000D000E10F2491F0E0E4E4E30F549173B1707FF9
:1000E000700F75B9E0CF10E03395EECF30E0EECF72
:1000F000F0E0F395F030E9F7089586B18370891741
:1001000031F0309B0395319B0A950F70982F18950D
:0801100064E666BD43951895F5
:00000001FF
